S0180000456D6265646465642070726F6A6563742E73726563EB
S11300000C942A000C94A2010C943C000C943C0027
S11300100C943C000C943C000C943C000C943C006C
S11300200C943C000C943C000C943C000C943C005C
S11300300C943C000C943C000C943C000C943C004C
S11300400C943C000C943C000C943C000C943C003C
S11300500C943C0011241FBECFE5D8E0DEBFCDBF19
S113006020E0A0E6B0E001C01D92A436B207E1F79B
S11300700E941B020C94D4050C940000CF93DF93D0
S113008010926100109260004BC06130710519F04C
S113009063307105A9F481E080936200C0E0D0E090
S11300A00BC080916300813019F4109263002FC05B
S11300B080E00E94DF012196C530D10594F327C06A
S11300C06115710521F482E08093620002C01092F0
S11300D0620081E40E94D901C0E0D0E010C08091A8
S11300E06300813019F4109263000CC040E054E0C6
S11300F060E070E080E89FE30E94D2022196C53060
S1130100D1056CF36091600081E40E94DC01809170
S1130110600090916100019690936100809360006B
S11301206091600070916100643071050CF4ADCF92
S1130130DF91CF910895CF93DF93FC0180818130CB
S113014009F44DC020F0823009F48DC0D4C062E0BF
S113015081E40E94DC0160E082E40E94D90162E053
S113016081E40E94D90140E054E060E070E080EA5C
S113017090E40E94D20260E082E40E94DC0162E02A
S113018081E40E94DC01C0E0D0E004C081E00E9470
S1130190DF012196C530D105CCF362E082E40E94F0
S11301A0D90160E081E40E94D90140E054E060E0BC
S11301B070E080EA90E40E94D20262E082E40E944D
S11301C0DC0160E081E40E94DC0110926100109285
S11301D0600091C081E00E94DF01219602C0C0E06E
S11301E0D0E0C530D105B4F360E082E40E94D901C7
S11301F062E081E40E94D90140E054E060E070E0F4
S113020080EA90E40E94D20260E082E40E94DC0171
S113021062E081E40E94DC01C0E0D0E004C081E03F
S11302200E94DF012196C530D105CCF362E082E45F
S11302300E94D90160E081E40E94D90140E054E0C9
S113024060E070E080EA90E40E94D20262E082E41E
S11302500E94DC0160E081E40E94DC0110926100F4
S11302601092600048C060E081E40E94DC01C0E0BC
S1130270D0E004C081E00E94DF012196C530D105A1
S1130280CCF360E082E40E94D90162E081E40E9440
S1130290D90140E054E060E070E080EA90E40E941C
S11302A0D20260E082E40E94DC0162E081E40E9408
S11302B0DC01C0E0D0E004C081E00E94DF012196AF
S11302C0C530D105CCF362E082E40E94D90160E03C
S11302D081E40E94D90140E054E060E070E080EAEB
S11302E090E40E94D20262E082E40E94DC0160E0B9
S11302F081E40E94DC01DF91CF910895CF93DF93D5
S1130300C0E0D0E005C06C2F81E40E94D4012196A6
S1130310C330D105C4F3C0E0D0E005C06C2F82E443
S11303200E94D4012196C330D105C4F362E084E471
S11303300E94CF010E94C702DF91CF9108950E94CD
S11303403E00FDCF1F920F920FB60F9211242F93F0
S11303503F934F935F936F937F938F939F93AF9349
S1130360BF93EF93FF9380916300811107C081E0F5
S11303708093630082E690E00E949B00FF91EF91DE
S1130380BF91AF919F918F917F916F915F914F91A9
S11303903F912F910F900FBE0F901F901895462FED
S11303A060E00E9422020895462F61E00E9422022A
S11303B008950E94550208950E948C020895813088
S11303C009F561E081E40E94D90161E082E40E94C0
S11303D0D90140E054E060E070E080E09FE30E94D7
S11303E0D20261E081E40E94DC0161E082E40E94C7
S11303F0DC0140E054E060E070E080E09FE30E94B4
S1130400D202089561E081E40E94D90140E054E001
S113041060E070E080E09FE30E94D20261E081E44A
S11304200E94DC0140E054E060E070E080E09FE383
S11304300E94D20208950E947E010E949F0180E0E2
S113044090E00895823499F018F4813431F00895DD
S11304508334B9F08434F9F008958AB370E002C0AB
S1130460660F771F4A95E2F7682B6ABB089587B336
S113047070E002C0660F771F4A95E2F7682B67BBEE
S1130480089584B370E002C0660F771F4A95E2F7BF
S1130490682B64BB089581B370E002C0660F771FB8
S11304A04A95E2F7682B61BB08958234A1F018F4F1
S11304B0813431F008958334C9F0843411F10895FE
S11304C02BB381E090E002C0880F991F6A95E2F790
S11304D0822B8BBB089528B381E090E002C0880F83
S11304E0991F6A95E2F7822B88BB089525B381E0B2
S11304F090E002C0880F991F6A95E2F7822B85BBB2
S1130500089522B381E090E002C0880F991F6A9594
S1130510E2F7822B82BB08958234A9F018F4813467
S113052031F008958334D9F0843429F108952BB33C
S113053081E090E002C0880F991F6A95E2F78095E8
S113054082238BBB089528B381E090E002C0880F1A
S1130550991F6A95E2F78095822388BB089525B395
S113056081E090E002C0880F991F6A95E2F78095B8
S1130570822385BB089522B381E090E002C0880FF6
S1130580991F6A95E2F78095822382BB08958FB7FD
S113059080688FBF15BE85B7836085BF8BB78064C5
S11305A08BBF08954F925F926F927F928F929F922A
S11305B0AF92BF92CF92DF92EF92FF920F931F936D
S11305C0CF93DF934B015C018A0113BEBA01550F2F
S11305D0880B990B0E949A0420E034E244E759E422
S11305E00E94F0032B013C0120E030E040E853E49A
S11305F00E9467059B01AC01C501B4010E94F00390
S11306000E94D9030E9462046B017C01EB01A301E7
S11306109201C501B4010E94F0034B015C01B601D3
S1130620DD0C880B990B0E949A049B01AC01C50157
S1130630B4010E94F0039B01AC0160E070E080E82B
S113064093E40E946C030E94D9030E946204962FD3
S113065062BF0034110589F024F40830110549F013
S11306601AC0011581E0180761F00115144079F0F2
S113067012C083B7826083BF07C083B7836083BF20
S113068003C083B7846083BF20E030E011C083B728
S1130690856083BFF9CF83B7816083BFF5CF08B688
S11306A000FEFDCF88B7816088BF92BF2F5F3F4FA8
S11306B02C173D07A4F3DF91CF911F910F91FF9069
S11306C0EF90DF90CF90BF90AF909F908F907F90EE
S11306D06F905F904F9008955058BB27AA270E94AF
S11306E084030C9415050E94070538F00E940E053A
S11306F020F039F49F3F19F426F40C9404050EF409
S1130700E095E7FB0C94D504E92F0E94260558F3E5
S1130710BA17620773078407950720F079F4A6F5E2
S11307200C9460050EF4E0950B2EBA2FA02D0B014E
S1130730B90190010C01CA01A0011124FF27591B22
S113074099F0593F50F4503E68F11A16F040A22F28
S1130750232F342F4427585FF3CF46953795279599
S1130760A795F0405395C9F77EF41F16BA0B620B98
S1130770730B840BBAF09150A1F0FF0FBB1F661FDF
S1130780771F881FC2F70EC0BA0F621F731F841F22
S113079048F4879577956795B795F7959E3F08F048
S11307A0B0CF9395880F08F09927EE0F979587950A
S11307B008950E94480590F09F3748F4911116F46B
S11307C00C94610560E070E080E89FE3089526F0F2
S11307D01B16611D711D811D0C94DB040C94F60421
S11307E00E9404040C9415050E940E0558F00E9402
S11307F0070540F029F45F3F29F00C94D50451110A
S11308000C9461050C9404050E94260568F3992351
S1130810B1F3552391F3951B550BBB27AA276217F8
S11308207307840738F09F5F5F4F220F331F441F05
S1130830AA1FA9F335D00E2E3AF0E0E832D0915039
S11308405040E695001CCAF72BD0FE2F29D0660F26
S1130850771F881FBB1F261737074807AB07B0E869
S113086009F0BB0B802DBF01FF2793585F4F3AF06F
S11308709E3F510578F00C94D5040C9461055F3FBC
S1130880E4F3983ED4F3869577956795B795F795F5
S11308909F5FC9F7880F911D9695879597F90895DD
S11308A0E1E0660F771F881FBB1F62177307840779
S11308B0BA0720F0621B730B840BBA0BEE1F88F788
S11308C0E09508950E9469046894B1110C9461053F
S11308D008950E942E0588F09F5798F0B92F992704
S11308E0B751B0F0E1F0660F771F881F991F1AF017
S11308F0BA95C9F714C0B13091F00E946005B1E017
S113090008950C946005672F782F8827B85F39F015
S1130910B93FCCF3869577956795B395D9F73EF4AF
S113092090958095709561957F4F8F4F9F4F089557
S1130930E89409C097FB3EF4909580957095619575
S11309407F4F8F4F9F4F9923A9F0F92F96E9BB272B
S11309509395F695879577956795B795F111F8CFA7
S1130960FAF4BB0F11F460FF1BC06F5F7F4F8F4F12
S11309709F4F16C0882311F096E911C0772321F008
S11309809EE8872F762F05C0662371F096E8862FA0
S113099070E060E02AF09A95660F771F881FDAF7F7
S11309A0880F9695879597F9089597F99F6780E83A
S11309B070E060E00895882371F4772321F0985063
S11309C0872B762F07C0662311F499270DC0905109
S11309D0862B70E060E02AF09A95660F771F881FD7
S11309E0DAF7880F9695879597F908959F3F31F028
S11309F0915020F4879577956795B795880F911D49
S1130A009695879597F908959FEF80EC08950024B3
S1130A100A941616170618060906089500240A945F
S1130A2012161306140605060895092E0394000CE5
S1130A3011F4882352F0BB0F40F4BF2B11F460FF74
S1130A4004C06F5F7F4F8F4F9F4F089557FD90589D
S1130A50440F551F59F05F3F71F04795880F97FB7E
S1130A60991F61F09F3F79F0879508951216130638
S1130A701406551FF2CF4695F1DF08C01616170667
S1130A801806991FF1CF869571056105089408959C
S1130A900E942E05A0F0BEE7B91788F4BB279F3843
S1130AA060F41616B11D672F782F8827985FF7CF4B
S1130AB0869577956795B11D93959639C8F30895F2
S1130AC0E894BB2766277727CB0197F908950E94FE
S1130AD07A050C9415050E94070538F00E940E054E
S1130AE020F0952311F00C94D5040C9404051124E2
S1130AF00C9461050E94260570F3959FC1F3950F30
S1130B0050E0551F629FF001729FBB27F00DB11D8D
S1130B10639FAA27F00DB11DAA1F649F6627B00D1D
S1130B20A11D661F829F2227B00DA11D621F739F06
S1130B30B00DA11D621F839FA00D611D221F749F14
S1130B403327A00D611D231F849F600D211D822F5B
S1130B50762F6A2F11249F5750409AF0F1F0882382
S1130B604AF0EE0FFF1FBB1F661F771F881F9150AF
S1130B705040A9F79E3F510580F00C94D5040C9485
S1130B8061055F3FE4F3983ED4F3869577956795C6
S1130B90B795F795E7959F5FC1F7FE2B880F911DD9
S10F0BA09695879597F90895F894FFCF77
S9030000FC
